:020000040800F2
:100000000812002041010008C50F0008350F000844
:1000100000000000000000000000000000000000E0
:100020000000000000000000000000000D100008AB
:100030000000000000000000FF000008351000086C
:100040005301000853010008530100085301000840
:100050005301000853010008530100085301000830
:100060005301000853010008530100085301000820
:10007000530100080D110008530100085301000846
:100080005301000853010008530100085301000800
:1000900053010008530100085301000853010008F0
:1000A00053010008530100085301000853010008E0
:1000B0005301000853010008530100080348854616
:1000C00000F086F80048004761150008081200207B
:1000D000064B19680868203080F30988022080F3F5
:1000E00014883FBCAE4662B600BD00002800002068
:1000F000EFF3108072B6704780F310887047EFF30B
:1001000009800E4B1A6820381060F0C044464D46F6
:1001100056465F46F0C008B572B601F053FC62B6B1
:100120000CBC116808681030F0C8A046A946B24659
:10013000BB4680F309882038F0C818472800002003
:100140000448804704480047FEE7FEE7FEE7FEE775
:10015000FEE7FEE7B1100008BD00000830B50B4611
:10016000014600202022012409E00D46D5409D4291
:1001700005D31D469540491B254695404019154617
:10018000521E002DF1DC30BD03460B439B0703D00C
:1001900009E008C9121F08C0042AFAD203E00B784C
:1001A0000370401C491C521EF9D27047D2B201E0C4
:1001B0000270401C491EFBD270470022F6E710B5C2
:1001C00013460A4604461946FFF7F0FF204610BDC5
:1001D000064C0125064E05E0E36807CC2B430C3C9A
:1001E00098471034B442F7D3FFF76CFF901D000816
:1001F000B01D0008FEE70000F8B5002292E00124DF
:100200009440A44623407DD04C68022C01D0122C8F
:100210000CD1D408A4002618356A5407E40E0F2721
:10022000A740BD430F69A7402F43376206685500BA
:100230000324AC400F79A643BF07BF0FAF4037433D
:1002400007604E68012E05D0022E03D0112E01D07A
:10025000122E0ED18668CF68A643AF403743876021
:1002600047686646B7430E79F606F60F96403E435A
:100270004660C668A6438C68AC403443C4604C6892
:10028000E4004ED52A4CA56901263543A561A46931
:10029000950834400094274CAD002F19BD68940791
:1002A000240F0F26A640B5430926F606B04201D119
:1002B000002614E0204EB04201D101260FE01F4E6F
:1002C000B04201D102260AE01D4EB04201D1032600
:1002D00005E01C4EB04201D1042600E00526A640F0
:1002E0002E43BE60184D2C684E689C43F60300D523
:1002F0001C432C606C684E689C43B60300D51C43BD
:100300006C6000E00DE0AC684E689C43F60200D5DE
:100310001C43AC60EC684E689C43B60200D51C439D
:10032000EC60521C0B681C46D44000D067E7F8BD57
:10033000001002400000014000040048000800488E
:10034000000C00480010004800040140014800680B
:10035000704700000800002002480168491C016045
:10036000704700000800002010B506480168102200
:1003700011430160002000F007F800F041F8002070
:1003800010BD00000020024000B5014687B00022E9
:100390000D2000F05BF80D2000F04EF81348826944
:1003A000C1140A43826180690840059004A9684627
:1003B00000F08CF900F0ACF90D49FFF7CFFE0E49C3
:1003C0000C4A0A600D4A401ECA604860002008615D
:1003D0008860084600F00AFC002802D0012007B01F
:1003E00000BD054800F01DFCF9E7000000100240C8
:1003F00040420F00002C0140D4000020E703000021
:1004000008B50C488169012211438161806910405F
:10041000002200901146501F00F018F8032100221E
:10042000481F00F013F803210022081F00F00EF807
:1004300008BD000000100240C106C90E012088401E
:10044000014908607047000000E100E010B500F0CD
:10045000BBFD10BDF8B504460068444DC00353D53C
:10046000E8690026C00007D4E96928040143E9616E
:10047000E9690140012600913D480168C90510D491
:100480000168821511430160FFF760FF074604E031
:10049000FFF75CFFC01B642823D835480068C005FF
:1004A000F6D5286A0321090208401FD062680A4075
:1004B00082421BD0286A2A6A8843012109040A4320
:1004C0002A622A6A8A432A622862C0070ED0FFF78E
:1004D0003DFF074607E0FFF739FFC11B2548814272
:1004E00001D90320F8BD286A8007F4D5286A0321C2
:1004F00009028843616808432862002E04D0E96934
:10050000012000078143E9612078C00705D0286BEE
:10051000A16880088000084328632078800706D5FA
:10052000286B032109048843E16808432863206895
:10053000400306D5286B03218904884321690843B9
:1005400028632078800605D5286B102188436169CF
:10055000084328632088400505D5286B402188433F
:10056000A169084328630020F8BD00000010024084
:100570000070004088130000F8B505464E480E464E
:100580000068C007C00FB0420AD24B480168490852
:100590004900314301600068C007C00FB04270D10C
:1005A0002878464F800705D57868F0218843A968E8
:1005B000084378602878C00753D06868012817D0AE
:1005C000022818D0032819D039688907002958DA79
:1005D00079688908890001437960FFF7B7FE04460E
:1005E0006868012813D002281DD0032827D034E0E2
:1005F00039688903EAE739688901E7E7796BC90354
:10060000E4E7FFF7A3FE011B2D48814223D8786859
:100610000007800F0128F4D123E0FFF797FE011BAC
:100620002748814217D878680007800F0228F4D144
:1006300017E0FFF78BFE011B214881420BD8786839
:100640000007800F0328F4D10BE0FFF77FFE011BAA
:100650001B48814201D90320F8BD78680007800F4C
:10066000F3D115480168C907C90FB1420BD9016818
:1006700049084900314301600068C007C00FB0421B
:1006800001D00120F8BD2878400706D578680721F9
:1006900009028843E9680843786000F049F87968FE
:1006A000084A0906090F515CC84007490860002044
:1006B000FFF76AFE0020F8BD002002400010024053
:1006C000881300006C1D00080400002010B50722EC
:1006D00002600A4A53689B079B0F43605368F024EB
:1006E00023408360526807231B021A40C2600448FB
:1006F0000068C007C00F086010BD00000010024075
:1007000000200240014800687047000004000020FB
:100710000448054900684968044A4905490F515C85
:10072000C840704704000020001002407C1D0008F3
:1007300070B518A00FC888B06C460FC419A00FC8B8
:100740000FC41C4E72680C20114601401A4804293F
:1007500006D08300194D082904D00C2918D028464A
:1007600008B070BD9102090F6C46645CF16A04AE7A
:100770000907090FD203715C920F022A02D0032AE3
:1007800004D02846FFF7EAFC6043E9E71846F9E79A
:100790001846E5E702030405060708090A0B0C0DD5
:1007A0000E0F10100102030405060708090A0B0CBE
:1007B0000D0E0F1000100240001BB70000127A004F
:1007C000FEB504460078EF4EEF4DC00747D068688D
:1007D0000007800F012818D068680007800F0228E2
:1007E00004D16868C003800F02280ED06068012819
:1007F00012D001218904002801D0052816D02868CC
:10080000B04328602868884308E02868800326D51C
:100810006068002873D022E0286830432860606850
:10082000002810D0FFF792FD074608E0286808432B
:100830002860F1E7FFF78AFDC01B642870D828689C
:100840008003F7D50BE0FFF781FD074604E0FFF7D3
:100850007DFDC01B6428F1D828688003F7D4207878
:1008600080073ED568680007800F14D068680007CD
:10087000800F022804D16868C003800F01280AD0C5
:10088000E068002828681DD0012108432860FFF790
:100890005DFD07460BE0286880070BD5E06801285E
:1008A0002DD107E0FFF752FDC01B0228C6D82868EB
:1008B0008007F7D52868F82188432169C9000843D3
:1008C00028600EE0400840002860FFF73FFD074623
:1008D00004E0FFF73BFDC01B0228AFD82868800763
:1008E000F7D42078000724D5E0690028686A10D082
:1008F000012108436862FFF729FD074605E03FE153
:10090000FFF724FDC01B022898D8686A8007F7D536
:100910000FE0400840006862FFF718FD074605E059
:10092000C3E0FFF713FDC01B022887D8686A800761
:10093000F7D4207804274007002861DA00200190CE
:10094000E869C00008D4E969B8060143E961E969CA
:1009500001400120009101908C480168C90511D423
:100960000168821511430160FFF7F0FC009005E07B
:10097000FFF7ECFC0099401A642897D88348006878
:10098000C005F5D5A06801280AD0002801D00528A7
:1009900011D0286A400840002862286AB84302E063
:1009A000286A012108432862A068002812D0FFF7B6
:1009B000CDFC00900AE0286A38432862F0E7FFF790
:1009C000C5FC0099411A724881426ED8286A800796
:1009D000F5D50DE0FFF7BAFC009006E0FFF7B6FC96
:1009E0000099411A6A4881425FD8286A8007F5D485
:1009F0000198002804D0E869012109078843E861CB
:100A00002078C00635D5606901280CD0401D686B80
:100A100024D038436863686B400840006863FFF780
:100A200095FC074622E0686B38436863686B0121D8
:100A300008436863FFF78AFC074604E0FFF786FC7B
:100A4000C01B022831D8686B8007F7D5686BF82186
:100A50008843A169C900084368630AE0B843686332
:100A6000F4E7FFF773FCC01B02281ED8686B8007F1
:100A7000F7D42078800637D568680007800F0328F0
:100A800014D068680007800F022804D16868C0038A
:100A9000800F03280AD0206A0028686B16D03043E4
:100AA0006863FFF753FC06460CE062E0686BC00326
:100AB0001AD5206A012863D116E0FFF747FC801B96
:100AC000022856D8686BC003F7D50DE0B0436863C1
:100AD000FFF73CFC064604E0FFF738FC801B0228C9
:100AE00047D8686BC003F7D4606A002846D06968AD
:100AF0000907890F022943D001273F0602282868E9
:100B000005D0B8432860FFF721FC044633E0B84322
:100B10002860FFF71BFC064604E0FFF717FC801B6C
:100B2000022826D828688001F7D4E86A216B0009DA
:100B300000010843E862A16AE06A084369687B2211
:100B4000D203914308436860286838432860FFF760
:100B5000FDFB044604E0FFF7F9FB001B022808D860
:100B600028688001F7D509E0FFF7F0FB001B022899
:100B700001D90320FEBD28688001F5D40020FEBD08
:100B80000120FEBD00000100001002400070004086
:100B900088130000042204490428086902D0904305
:100BA000086170471043FBE700E000E07047000079
:100BB000094910B5401E884201D9012010BD074CDB
:100BC00060610321081F00F0FFF90020A0610720E9
:100BD0002061002010BD0000FFFFFF0000E000E0EA
:100BE00010B5FFF7E3FF10BD7047704770B5040004
:100BF00005D025462035687F002802D006E0012078
:100C000070BD00202877204600F00AF8022068779F
:100C1000211D206800F082FA01206877002070BD55
:100C200070470168CA6801231A43CA6000680168F6
:100C30001943016000207047704770B50446006892
:100C400001690025C9438907002915DBC168C9432B
:100C5000890711D4E91E016101202077206880698D
:100C60008007204602D0FFF7E7FF04E000F096F887
:100C7000204600F094F8257720680169C9434907A8
:100C800017D4C168C943490713D40421C94301617A
:100C900002202077206880698005800F204602D0DE
:100CA000FFF7CAFF04E000F079F8204600F077F87B
:100CB000257720680169C943090716D4C168C9436B
:100CC000090712D40821C943016104202077206854
:100CD000C0698007204602D0FFF7AEFF04E000F0B5
:100CE0005DF8204600F05BF8257720680169C9436C
:100CF000C90617D4C168C943C90613D41021C94312
:100D00000161082020772068C0698005800F204697
:100D100002D0FFF791FF04E000F040F8204600F019
:100D20003EF8257720680169C943C90708D1C16821
:100D3000C943C90704D1891E0161204600F030F87B
:100D400020680169C943090609D4C168C943090675
:100D500005D48021C94301612046FFF745FF206883
:100D60000169C943490609D4C168C943490605D484
:100D70004021C9430161204600F01CF82068016948
:100D8000C943890609D4C168C943890605D420210D
:100D9000C94301612046FFF728FF70BD70477047C7
:100DA00010B500680249884201D1FFF7D5FA10BD9D
:100DB000002C0140704770B5040005D02546603511
:100DC000687A002802D006E0012070BD0020287259
:100DD000204600F027F8242068722068016849083E
:100DE00049000160204600F087FA0128EDD0606AD2
:100DF000002802D0204600F0DBF920684168092273
:100E0000D20291434160206881682A229143816027
:100E100020680168012211430160204600F02EFA8B
:100E200070BD000000B500680E4987B0884217D138
:100E30000D488269012189030A4382618069084063
:100E40000590032040020090022001900121032020
:100E500003900291049109206946C006FFF7CCF97E
:100E600007B000BD0038014000100240FFB5074642
:100E700005466037787A83B00C46202858D1002C7C
:100E80000CD00598002809D00120A96800038142F0
:100E900007D12869002804D1E00702D0012007B05B
:100EA000F0BD387A012843D0012038720020E8666E
:100EB00021207872FFF74AFA01902E4640360598B5
:100EC00030820598708218E0708A401E7082069801
:100ED0000090002280212846019B00F0DDFA0028C6
:100EE00018D10120A9680003814202D12869002895
:100EF00012D0296820780885641C708A0028E3D104
:100F000006980090002240212846019B00F0C4FA78
:100F1000002808D00320C2E720882968C005C00D3A
:100F20000885A41CE9E72020787200203872B6E713
:100F30000220B4E7FEE7000000B585B014220649A0
:100F40006846FFF721F90021684600F029FB0349B4
:100F5000086005B000BD0000581D0008000000201A
:100F600008B508484269012189050A43426142697E
:100F70000A400092426949110A43426140690840AF
:100F8000009008BD0010024010B50D480B490160EB
:100F9000E12149024160C90481600021C160016111
:100FA0008161C1610C22016242614162FFF703FF6E
:100FB000002801D0FFF71EF910BD000000380140E5
:100FC00064000020704700008307FF22DB0E9A4078
:100FD0008907090E994000280BDA0007000F08382E
:100FE000830808489B001818C36993430B43C361E7
:100FF0007047830804489B001818036893430B4309
:101000000360704700ED00E000E400E0704700007E
:10101000034C04A000F070FA204600F0B4FAF8E7A0
:10102000A086010068656C6C6F2C776F726C642110
:101030000D0A000010B5FFF7D3FD10BD70B598B0D4
:101040000124009420040A900194C0000226002587
:101050000B90099603940C956846FFF7B1FB0028A6
:1010600000D0FEE707200D900F9501210E961095F8
:101070000DA8FFF781FA002800D0FEE711A813950C
:101080001194FFF7E7F9002800D0FEE7FFF73AFBDD
:101090007D21C900FFF762F8FFF78AFD0420FFF702
:1010A00079FD03210022081FFFF7D0F918B070BDA9
:1010B000124801680122114301604168104A114041
:1010C000416001680F4A11400160016801229204E9
:1010D0009143016041683F22120491434160C16A1B
:1010E00009090901C162016B074A11400163416BA3
:1010F00049084900416300218160704700100240A7
:101100000CB8FF08FFFFF6FEACFEF0FF10B502487A
:10111000FFF793FD10BD0000D4000020F0B5026879
:101120001D4B0124A4071D4D984203D0A04201D0BD
:10113000A84203D17026B2434E683243184E194F6D
:1011400098420DD0A0420BD0A84209D0164CA04224
:1011500006D0B04204D0B84202D0144CA04204D110
:1011600003242402A243CC6822438024A2434C6976
:10117000224302608A68C2620A688262984206D08C
:10118000B04204D0B84202D0084A904201D1096965
:10119000016301214161F0BD002C014000040040C9
:1011A0000040014000440140002000400048014050
:1011B00010B5818CC90707D001684A6801235B0418
:1011C0009A43836A1A434A60818C890707D501686C
:1011D0004A6801231B049A43C36A1A434A60818CFC
:1011E000490707D501684A6801239B049A43036BAA
:1011F0001A434A60818C090707D501684A680123B0
:10120000DB039A43436B1A434A60818CC90607D5B6
:1012100001688A6801231B039A43836B1A438A601F
:10122000818C890607D501688A6801235B039A438C
:10123000C36B1A438A60818C490612D501684B68DA
:1012400001221205046C934323434B60016C9142CD
:1012500007D101684A6803235B059A43436C1A432C
:101260004A60818C090607D501684A680123DB04BE
:10127000806C9A4302434A6010BD0000F8B5002517
:101280000446C566FFF762F806461749206888429B
:1012900005D01649884202D0154988421DD1006800
:1012A000144F000709D50121334600224905204685
:1012B000009700F0F1F800280DD120680068400781
:1012C0000BD501213346002289052046009700F006
:1012D000E3F8002801D00320F8BD202060346072BC
:1012E000A07225720020F8BD003801400044004083
:1012F00000480040FFFFFF01F8B50446A3682269DB
:10130000E56913436269102000212A4313432268D0
:101310000E461568544F3D401D43156022685368C2
:1013200003252D03AB43E5682B435360A369226A71
:101330001343226895680B273F02BD431D43956008
:101340004A4F25684A4B0203BD420AD11B6B9B07DB
:101350009B0F3AD0012B25D0022B25D0032B35D162
:101360001EE0444FBD420AD11B6B03273F043B40A4
:101370002BD09B1A16D09B1A16D09B1A0EE03E4F0C
:10138000BD4213D11B6B0327BF043B401DD0012777
:10139000BF04DB1B06D0DB1B06D0DB1B002B15D1EB
:1013A000022013E0042011E008200FE0334B9D429F
:1013B0000BD0334B9D4208D0324B9D4205D0324B6F
:1013C0009D4202D0314B9D4200D100200123E769AC
:1013D000DB039F4222D100280CD002280DD0042824
:1013E00013D0082817D001260A0912010807400F58
:1013F00010432EE0FFF78CF909E06168244A4808A1
:101400008018FEF7ABFE81B2EEE7FFF791F9616855
:1014100040004A08F4E761684808F1E7002808D06E
:10142000022809D004280CD0082815D001263046FF
:10143000F8BDFFF76DF906E06168164A48088018A4
:101440000DE0FFF775F961684A088018FEF786FE1F
:1014500080B22168C860EAE761684808C018FEF7F2
:101460007DFE80B2E860E2E7F369FFEF00380140FB
:10147000001002400044004000480040004C004082
:10148000005000400014014000180140001C0140C1
:101490000024F40000127A00FFB581B01E46174602
:1014A00005460A9C1CE0601C1AD0002C04D0FEF7F4
:1014B0004DFF801BA04213D928680168FF22A1328A
:1014C00091430160286881684908490081602020B3
:1014D00060356872A87200202872032005B0F0BD44
:1014E0002868C1690298884304D00020B842DAD045
:1014F0000020F3E70120F9E710B5024A024900F0A5
:1015000014F810BD491500086000002002E008C86A
:10151000121F08C1002AFAD170477047002001E06D
:1015200001C1121F002AFBD17047F8B516460F46BD
:101530000446002503E03946B047641C6D1C207842
:101540000028F8D12846F8BD13B50023DB4301225B
:1015500069460248FFF78AFC00981CBD6400002021
:10156000FEF702FFFFF76AFDFFF7FAFCFFF70CFD3D
:10157000FFF7E2FC00F00FF8FEE7014600208429A7
:1015800000D0C81C704710B5002800D1012000F021
:10159000CDF9002010BD10B500F0E6F9002010BD17
:1015A00030B50446082085B00D46205EFFF7E5FF04
:1015B000002104AA0291019203910090208A2B46F7
:1015C00082B22168606800F04FFA012802D0002042
:1015D00005B030BD0498FBE770B50B4D0446286894
:1015E0004460E8682968844204D2686B091D00F0F1
:1015F00031F970BD286B091D00F02CF9A86A8442EE
:10160000F7D2AC6270BD00002800002070B5144E07
:10161000144D21E000F0CEF93068002805D00024F8
:1016200000F046FB002C17D101E00124F8E700F0A0
:1016300035F9F068C468201D00F0ECF8A868401E79
:10164000A8606868401E686000F034F9206B00F004
:101650003FF9204600F03CF968680028DAD170BDF7
:10166000DC0D00202800002003210E4889024207DB
:1016700005D0C01DC0080B4AC000821A891A0A4B47
:101680000022411805C30839C908C900183B196070
:101690004A600A600A1A06C09A600120C0075A60B0
:1016A000D8607047140100201C000020044CFFF794
:1016B000ADFF20680128FAD900F02CF9F7E7000007
:1016C000140D002030B5114900E011460A6882422D
:1016D000FBD34B685C18844203D1406818184860FB
:1016E000084643681C18944209D1084C103C2468F1
:1016F000A24209D052689A1842600A6812680260D1
:10170000814200D0086030BD0460F9E71C00002071
:101710000648016B0968002905D0016BC968C968D2
:101720004968816270470021C943FAE72800002018
:1017300003480068401C72B600D0FEE7FEE70000D8
:1017400024000020F8B50546002600F033F9284FA4
:101750003868002801D1FFF787FFF86805423FD1BC
:10176000002D3DD00835680708D06807400F0821D4
:10177000081A4519680701D072B6FEE7002D2FD070
:10178000786885422CD81A4910310846046801E06F
:10179000214604466068A84202D220680028F7D19A
:1017A000386884421CD00E6820680860606808367B
:1017B000411B102908D96019420701D072B6FEE713
:1017C00041606560FFF77EFF61687868401A786065
:1017D000BA68904200D2B860F8680143002003C4A0
:1017E00000F066FA700701D072B6FEE73046F8BD29
:1017F0000C00002010B50124031F24061C601B1FD1
:101800001960191F024B0B60143940380A6010BD73
:10181000311700084368826801699A6083684268EA
:101820005A604A68824201D182684A60002202619D
:101830000868401E08607047014608310022416078
:10184000D243C160826001610021016070470021C4
:101850000161704730B50C68621C02D00246083244
:1018600002E0026904E01A4653681D68A542FAD9ED
:1018700053684B6099608A60516008610168491C37
:10188000016030BD42684A6093688B60936859601C
:10189000916008610168491C0160704772B6044894
:1018A0000168491C0160BFF34F8FBFF36F8F704712
:1018B0002400002005490868002804D0401E086064
:1018C00000D162B6704772B6FEE700002400002027
:1018D00070B500281AD004460D4D083C6068E968D0
:1018E000084201D172B6FEE72268002A01D072B622
:1018F000FEE78843606000F05DF860686968401842
:1019000068602046FFF7DEFE00F0D2F970BD0000EF
:101910000C0000200120044900074860BFF34F8FEE
:10192000BFF36F8F7047000000ED00E010B50200BC
:1019300014D00C4BD86A002801D072B6FEE700F034
:1019400039F8D86884181868001DFFF763FF20462F
:10195000FFF742FE00F0ACF9002801D1FFF7DAFFF3
:1019600010BD0000280000201FB500240094019441
:101970000294234680220BA10C48039400F074F8D3
:10198000012803D000280BD172B6FEE772B6002101
:101990000748C943816201214161C46000F03EF8FB
:1019A0001FBD000049444C4500000000AD16000872
:1019B000280000200248C16A491CC162704700002B
:1019C000280000201349C86A002802D00120C861FD
:1019D00070470020C861104A04E0002817D0086949
:1019E000401E0861086914235843105800280869EC
:1019F000F3D0584380184268034652680833426067
:101A00009A4201D152684260D0680860704772B64D
:101A1000FEE7000028000020140D002010B50E483D
:101A2000016AFF22120411430162016A120211438A
:101A300001620A487D21C9000068FEF78FFB084952
:101A4000401E486107200861064900200860FEF733
:101A50003FFB002010BD000000ED00E0040000206E
:101A600000E000E024000020FFB583B003990C9E45
:101A70000E98002903D0072E03D372B6FEE772B684
:101A8000FEE79500002802D12846FFF75BFE07001D
:101A90000FD05C20FFF756FE040006D0A522294691
:101AA00038462763FEF782FB04E03846FFF710FF55
:101AB00000E00024002C6FD0206B2D1F4019C008BF
:101AC000C0000090400701D072B6FEE70499354689
:101AD000002022180B5C203213750A5C002A02D009
:101AE000401C1028F5D32046403000270190C770D5
:101AF000072D00D30625E5622765201DE564FFF765
:101B0000A6FE20461830FFF7A2FE24610720411BE5
:101B10006462A161676501980776069A0399009847
:101B2000FFF768FE20600D98002800D00460FFF7E2
:101B3000B5FE2D4FB868401CB8603868002803D047
:101B40007869002829D02DE03C60B868012829D1A7
:101B500000251420254968434018FFF76DFE6D1CD1
:101B6000072DF6D321488C30FFF766FE1F48A030C2
:101B7000FFF762FE1D48B430FFF75EFE1B48C83019
:101B8000FFF75AFE1948DC30FFF756FE17488C3035
:101B900038631430786305E023E03868C06AB042E7
:101BA00000D83C60786A401C78626064E06A3969F9
:101BB000884200D93861142148430C494018211D3E
:101BC000FFF760FE0124FFF775FE7869002805D055
:101BD0003868C06AB04201D2FFF79CFE204607B0C9
:101BE000F0BD0024E443F9E728000020140D002094
:101BF000F8B52D4F0025F86A002808D0B869401CB8
:101C0000B861F869002800D001252846F8BDF868B9
:101C1000401CF860FE68002E0ED1386B006800286A
:101C200001D072B6FEE7386B796B39637863386A36
:101C3000401C3862FFF76CFDB86A86420AD3386BE5
:101C40000068002810D0386BC068C468606886429D
:101C50000DD2B8623868C16A142041431348405815
:101C60000128CED90125CCE70020C043F1E7201D93
:101C7000FFF7D0FDA06A002803D020461830FFF7F8
:101C8000C9FDE06A3969884200D9386114214843A6
:101C900006494018211DFFF7F5FDE06A3968C96A59
:101CA0008842CCD30125CAE728000020140D00206B
:101CB000F8B5274D0027E86A002808D0FFF7EEFDA9
:101CC000E86A401EE862E86A002802D03BE072B68B
:101CD000FEE7A868012600281BD134E0C068C4686C
:101CE00020461830FFF796FD201DFFF793FDE06AB0
:101CF0002969884200D928611421484315494018B0
:101D0000211DFFF7BFFDE06A2968C96A884200D338
:101D1000EE611048B43001680029DFD1A8690028BD
:101D200008D10AE0FFF764FF002800D0EE61A8693F
:101D3000401EA861A8690028F4D1E869012802D1F1
:101D40000127FFF7E7FDFFF7B5FD3846F8BD0000B6
:101D500028000020140D0020841D00081110000828
:101D600000000000000000008000000000000000F3
:101D7000000000000102030406070809000000003B
:101D80000102030464656661756C745461736B00D1
:101D9000B01D000800000020640000000C150008C1
:101DA000141E000864000020A41100001C15000887
:101DB0000000000000127A00000000000000000097
:101DC0000000000000000000000000000000000013
:101DD00000000000AAAAAAAA00000000000000005B
:101DE00000000000000000000000000000000000F3
:101DF00000000000000000000000000000000000E3
:101E000000000000000000000000000000000000D2
:041E100000000000CE
:04000005080000BD32
:00000001FF
