:020000040000FA
:090000000214951219A702183C24
:10000B00020CF3E709F608DFFA8046E709F208DF8E
:10001B00FA803E88828C83E709F0A3DFFA8032E313
:10002B0009F608DFFA8078E309F208DFFA807088B6
:10003B00828C83E309F0A3DFFA806489828A83E0F0
:10004B00A3F608DFFA805889828A83E0A3F208DFDF
:10005B00FA804C80D280FA80C680D4806980F2808E
:10006B0033801080A680EA809A80A880DA80E280B4
:10007B00CA803389828A83ECFAE493A3C8C582C809
:10008B00CCC583CCF0A3C8C582C8CCC583CCDFE973
:10009B00DEE7800D89828A83E493A3F608DFF9EC0F
:1000AB00FAA9F0EDFB2289828A83ECFAE0A3C8C59A
:1000BB0082C8CCC583CCF0A3C8C582C8CCC583CCC1
:1000CB00DFEADEE880DB89828A83E493A3F208DF30
:1000DB00F980CC88F0EF60010E4E60C388F0ED2400
:1000EB0002B4040050B9F582EB2402B4040050AF03
:1000FB00232345822390005E73BB010689828A838A
:10010B00E0225002E722BBFE02E32289828A83E4CB
:10011B009322BB010CE58229F582E5833AF583E056
:10012B00225006E92582F8E622BBFE06E92582F875
:10013B00E222E58229F582E5833AF583E49322BB3B
:10014B000111F8E58229F582E5833AF583E0C828A9
:10015B00F0E8225009C58229F8C58226C622BBFECB
:10016B000DC58229F8E2C5822582F2E58222EA25B5
:10017B0083F583E99322BB010FF8E58229F582E52C
:10018B00833AF583E028F0225009C58229F8E582ED
:10019B0026F622BBFE09C58229F8E22582F222F857
:1001AB00EA2583F583E9932822BB010689828A839A
:1001BB00F0225002F722BBFE01F322F8BB010DE542
:1001CB008229F582E5833AF583E8F0225006E9258A
:1001DB0082C8F622BBFE05E92582C8F222C5F0F8DB
:1001EB00A3E028F0C5F0F8E582158270021583E0D4
:1001FB0038F022A3F8E0C5F025F0F0E58215827007
:10020B00021583E0C838F0E822BB010A89828A8391
:10021B00E0F5F0A3E022500687F009E71922BBFEB8
:10022B0007E3F5F009E3192289828A83E493F5F059
:10023B0074019322BB0110E58229F582E5833AF51F
:10024B0083E0F5F0A3E0225009E92582F886F00857
:10025B00E622BBFE0AE92582F8E2F5F008E222E588
:10026B00832AF583E993F5F0A3E99322BB010DC52E
:10027B008229C582C5833AC5830201E85011C58224
:10028B0029F808E5F026F618F5F0E58236F622BBDC
:10029B00FE11C58229F808E225F0F5F0F218E235D7
:1002AB0082F222F8E58229F582E5832AF58374012F
:1002BB009325F0F5F0E4933822BB010A89828A83F7
:1002CB00F0E5F0A3F0225006F709A7F01922BBFEC8
:1002DB0006F3E5F009F31922F8BB0111E58229F5C4
:1002EB0082E5833AF583E8F0E5F0A3F0225009E9C3
:1002FB002582C8F608A6F022BBFE09E92582C8F2C2
:10030B00E5F008F222E88FF0A4CC8BF0A42CFCE9EA
:10031B008EF0A42CFC8AF0EDA42CFCEA8EF0A4CD7C
:10032B00A8F08BF0A42DCC3825F0FDE98FF0A42C90
:10033B00CD35F0FCEB8EF0A4FEA9F0EB8FF0A4CF43
:10034B00C5F02ECD39FEE43CFCEAA42DCE35F0FDF4
:10035B00E43CFC2275F008758200EF2FFFEE33FEB4
:10036B00CD33CDCC33CCC58233C5829BED9AEC9982
:10037B00E58298400CF582EE9BFEED9AFDEC99FC24
:10038B000FD5F0D6E4CEFBE4CDFAE4CCF9A882226B
:10039B00B800C1B90059BA002DEC8BF084CFCECD8B
:1003AB00FCE5F0CBF97818EF2FFFEE33FEED33FDC4
:1003BB00EC33FCEB33FB10D703994004EB99FB0FA9
:1003CB00D8E5E4F9FA227818EF2FFFEE33FEED3380
:1003DB00FDEC33FCC933C910D7059BE99A4007ECF8
:1003EB009BFCE99AF90FD8E0E4C9FAE4CCFB22753F
:1003FB00F010EF2FFFEE33FEED33FDCC33CCC833D3
:10040B00C810D7079BEC9AE899400AED9BFDEC9A34
:10041B00FCE899F80FD5F0DAE4CDFBE4CCFAE4C8AC
:10042B00F922E8600FECC313FCED13FDEE13FEEFA6
:10043B0013FFD8F122BB010DE58229F582E5833A42
:10044B00F5830206385007E92582F802062CBBFE1D
:10045B0007E92582F8020644E58229F582E5833A0D
:10046B00F583020650BB010DE58229F582E5833A3F
:10047B00F5830204C45007E92582F8020696BBFEF9
:10048B0007E92582F80206A222BB010DE58229F5B8
:10049B0082E5833AF58302066D5007E92582F8025F
:1004AB000660BBFE07E92582F8020679E58229F58D
:1004BB0082E5833AF583020686ECF0A3EDF0A3EE1A
:1004CB00F0A3EFF022A8828583F0D083D0821204B0
:1004DB00E71204E71204E71204E7E473E493A3C5FD
:1004EB0083C5F0C583C8C582C8F0A3C583C5F0C555
:1004FB0083C8C582C822BB010789828A830206C0D2
:10050B005005E9F80206AEBBFE05E9F80206E989DB
:10051B00828A830206FBBB011A89828A83D0F0D0C0
:10052B00E0F8D0E0F9D0E0FAD0E0FBE8C0E0C0F0B2
:10053B000206E05016E9F8D083D082D0E0F9D0E083
:10054B00FAD0E0FBC082C0830206B7BBFE16E9F807
:10055B00D083D082D0E0F9D0E0FAD0E0FBC082C0EB
:10056B00830206F222BB010DE58229F582E5833A6F
:10057B00F5830206C05007E92582F80206AEBBFEE2
:10058B0007E92582F80206E9E58229F582E5833A37
:10059B00F5830206FBBB0120E58229F582E5833A50
:1005AB00F583D0F0D0E0F8D0E0F9D0E0FAD0E0FB62
:1005BB00E8C0E0C0F00206E05018E92582F8D083CD
:1005CB00D082D0E0F9D0E0FAD0E0FBC082C0830249
:1005DB0006B7BBFE18E92582F8D083D082D0E0F9AC
:1005EB00D0E0FAD0E0FBC082C0830206F2228A83FD
:1005FB008982E473EC8EF0A4CCC5F0CCCDF8EFA4DB
:10060B00CEC5F02DFDE43CFCE8A42EC8C5F03DFDA5
:10061B00E43CFCEFA4FFE5F028FEE43DFDE43CFCEC
:10062B0022E6FC08E6FD08E6FE08E6FF22E0FCA356
:10063B00E0FDA3E0FEA3E0FF22E2FC08E2FD08E2FE
:10064B00FE08E2FF22E493FC740193FD740293FE17
:10065B00740393FF22E6FB08E6F908E6FA08E6CBFB
:10066B00F822E0F8A3E0F9A3E0FAA3E0FB22E2FB17
:10067B0008E2F908E2FA08E2CBF822E493F87401F5
:10068B0093F9740293FA740393FB22ECF608EDF6DC
:10069B0008EEF608EFF622ECF208EDF208EEF2089F
:1006AB00EFF222E6FB08E6FA08E6F922EBF608EA97
:1006BB00F608E9F622E0FBA3E0FAA3E0F922F8E062
:1006CB00FBA3A3E0F925F0F0E582158270021583F8
:1006DB00E0FA38F022EBF0A3EAF0A3E9F022E2FB18
:1006EB0008E2FA08E2F922EBF208EAF208E9F22250
:1006FB00E493FB740193FA740293F922D083D082B2
:10070B00F8E4937012740193700DA3A393F8740122
:10071B0093F5828883E4737402936860EFA3A3A3B9
:10072B0080DFE50824B0F582E43402F583E00508A8
:10073B00229002AD3007039002B0E475F00112066F
:10074B00C90201042000E97F2ED2008018EF540F5C
:10075B002490D43440D4FF30040BEF24BFB41A00E0
:10076B0050032461FFE50960021509050CE50C70C7
:10077B0002050B30070E9002ADE475F0011206C9AD
:10078B00EF0201B40219CA7403D2078003E4C20753
:10079B00F5089002AD1206E0E4F509F50BF50CE552
:1007AB000960077F2012077080F5750AFFC201C22E
:1007BB0000C202C203C205C206C20812073CFF7088
:1007CB000D3007057F00120781AF0CAE0B22B4254D
:1007DB005FC2D5C20412073CFF24D0B40A00501AE2
:1007EB0075F00A780930D50508B6FF0106C6A426B0
:1007FB00F620D5047002D20380D924CFB41A00EFAF
:10080B005004C2E5D204020982D20180C6D2008014
:10081B00C0D20280BCD2D580BAD20580B47F201260
:10082B0007702002077401B5090040F112072DFF74
:10083B001207700207AAD208D206809512072DFB69
:10084B0012072DFA12072DF94A4B700679537A0AC3
:10085B007BFF20022EE509602A7E008E82758300C5
:10086B0012011D60060EEE650A70F0C2D5EBC0E0FA
:10087B00EAC0E0E9C0E0EE1209C9D0E0F9D0E0FA35
:10088B00D0E0FB120104FF60AAEBC0E0EAC0E0E994
:10089B00C0E0120770D0E02401F9D0E03400FAD0A8
:1008AB00E0FBE50A0460DCD50AD980877BFF7A0977
:1008BB0079C5D202809C791080027908C206C208E1
:1008CB008008D2D5790A8004790AC2D5E50A04706A
:1008DB0002F50AE4FAFDFEFF12072DFC7B0820014E
:1008EB001312072DFD7B1030000A12072DFE120785
:1008FB002DFF7B20EC3382D592D55013C3E430000F
:10090B00069FFFE49EFEE42001039DFDE49CFCE4B6
:10091B00CBF8C201EC700CCFCECDCCE824F8F8703C
:10092B00F38017C3EF33FFEE33FEED33FDEC33FCF7
:10093B00EB33FB994002FB0FD8E9EB300105F8D004
:10094B00E0C448B201C0E00AEC4D4E4F78207B006A
:10095B0070C2EAB50A0040BCC0E01209CBD0F0D09F
:10096B00E0200104C4C0E0C4B201C0F0120759D0AA
:10097B00F0D5F0EB0207AA12070708475308C15836
:10098B0008184C08144208C54F08CD4408CD490837
:10099B002D4308D35508B74608B74508B7470A7320
:1009AB0050081C2D08202E08432B08242308412017
:1009BB000A5C2A07DC480000083B3F3F3F00790AEE
:1009CB00A2D5200314300509B910020404B908019B
:1009DB0004A2D52006025001042002689202B50938
:1009EB00005034C0E07F203003197F30A202720622
:1009FB007205500F120A22C202C206C205C2087F3C
:100A0B0030800F300503E9C0E0120770300503D0CA
:100A1B00E0F9D0E0B509CC3005177F30B9100C12D6
:100A2B0007707F583004077F788003B908031207DB
:100A3B00703002057F2D0207707F202008F87F2B76
:100A4B002006F322920280CF286E756C6C2900D29F
:100A5B000112072D3001F8C201780930D50108F6D3
:100A6B000207DC2D5043495812072D2403B405000F
:100A7B004001E4900A6E93120761743A120761D237
:100A8B00037509040208C190028EEBF0A3EAF0A3F0
:100A9B00E9F012198590029BEFF01219B490029CA9
:100AAB00EBF0A3EAF0A3E9F090029BE0D39404747B
:100ABB008094804009900297E07003020CEC900246
:100ACB009BE0602FA3E0FBA3E0FAA3E0F990029B6D
:100ADB00E014F075F003A4F58285F0831205701213
:100AEB00050190000512011DFF900297E0B507CE9E
:100AFB00020CEC9002FAE004F0C2AF90028EE0FB25
:100B0B00A3E0FAA3E0F97D0C7C001213DEC003C056
:100B1B0002C00190028EE0FBA3E0FAA3E0F91205FC
:100B2B002190028EE0FBA3E0FAA3E0F9120501E9A4
:100B3B004A4B7003020CEC90028EE0FBA3E0FAA38D
:100B4B00E0F9E4FD12119B900291E0FBA3E0FAA304
:100B5B00E0F9C003C002C00190028EE0FBA3E0FAF3
:100B6B00A3E0F91205019000021205A0900298E093
:100B7B00FEA3E0FF90028EE0FBA3E0FAA3E0F912E4
:100B8B000501900009EE8FF01202E390029AE090BB
:100B9B00000B1201C6900297E09000051201C6905F
:100BAB000006E41201C6900298E475F0011201FEF2
:100BBB0085F082F583740FF0900291A3E0FAA3E025
:100BCB00AE02FD900298E475F0011201FE85F082F1
:100BDB00F583EDF0EEFF900298E0FCA3E0F5828C3C
:100BEB0083EFF0E490029BF090029BE0C3940674B9
:100BFB008094805019900298E475F0011201E885F9
:100C0B00F082F583E4F090029BE004F080DA90022E
:100C1B0094E0FBA3E0FAA3E0F9FF900298E475F0EF
:100C2B00011201FE85F082F583EFF0AF01AE02AD4C
:100C3B00037C00780812042D900298E475F00112E1
:100C4B0001FE85F082F583EFF0AF01AE02AD037CC0
:100C5B0000781012042D900298E0FCA3E0F5828C32
:100C6B0083EFF0E490029BF090029BE0C39404743A
:100C7B008094805019900298E475F0011201E88578
:100C8B00F082F583E4F090029BE004F080DA9002AE
:100C9B008EE0FBA3E0FAA3E0F9900225E0FF04F05D
:100CAB00EF75F003A42419F582E43402F583EBF01D
:100CBB00A3EAF0A3E9F09002FAE014F07002D2AFCD
:100CCB00900216E0FBA3E0FAA3E04A4B6005E4FFB9
:100CDB0012108390028EE0FBA3E0FAA3E0F9020569
:100CEB00017B007A00790022C0E0C0F0C083C08293
:100CFB00C0D075D000C000C001C002C003C004C08A
:100D0B0005C006C0079002A6E4F09002FAE004F0DA
:100D1B00C2AF900216E0FBA3E0FAA3E0F9120501C3
:100D2B0090000912023F85F00DF50E750F22C3E5F9
:100D3B00819422F510850E82850D83F0AF1015106E
:100D4B00EF6017050FA80FE6FF050EE50E70020505
:100D5B000DF582850D83EFF080E2900232E0700397
:100D6B00020E449002A5E4F09002A5E0FFC39403A9
:100D7B00748094804003020E44EF75F003A4242684
:100D8B00F582E43402F583E0FBA3E0FAA3E04A4BDF
:100D9B007003020E3B9002A5E075F003A42426F528
:100DAB0082E43402F583E0FBA3E0FAA3E0F9120539
:100DBB000190000774FFF5F012027745F070719007
:100DCB0002A5E0FE75F003A42426F582E43402F5B7
:100DDB0083E0FBA3E0FAA3E0F9120501900006E41F
:100DEB001201C6EE75F003A42426F582E43402F555
:100DFB0083E0FBA3E0FAA3E0F9900225E0FE04F008
:100E0B00EE75F003A42419F582E43402F583EBF0BC
:100E1B00A3EAF0A3E9F0EF75F003A42426F582E42E
:100E2B003402F583E4F0A3F0A3F09002A6E004F003
:100E3B009002A5E004F0020D73900232E0FF9002E5
:100E4B00A6E0FEC3EF9E900232F0EE60767B007A56
:100E5B000079001216F512050190000512011DFF15
:100E6B00900216E0FBA3E0FAA3E0F9120501900053
:100E7B000512011DFEEFD39E4049900216E0FBA325
:100E8B00E0FAA3E0F9E4FD1213227B017A0279A5C3
:100E9B001216F5900216EBF0A3EAF0A3E9F090021C
:100EAB00A5E0FF900225E014FDF01217BE9002168C
:100EBB00E0FBA3E0FAA3E0F912050190000674042D
:100ECB001201C6900216E0FBA3E0FAA3E0F91205AB
:100EDB000190000912023F85F00DF50E750F22F5FA
:100EEB0082850D83E0F510AF101510EF6015050E20
:100EFB00E50E7002050DF582850D83E0050FA80F39
:100F0B00F680E4850F819002FAE014F07002D2AF04
:100F1B00D007D006D005D004D003D002D001D0002A
:100F2B00D0D0D082D083D0F0D0E03290028AEBF0D8
:100F3B00A3EAF0A3E9F012153290028D1204C4C299
:100F4B008C90028AE0FBA3E0FAA3E0F99000011277
:100F5B00011D25E025E0FFE58954FB4FF589900045
:100F6B000212011DFFE58954FC4FF5899000031215
:100F7B00011D7F0070027F01EFC43333335480FFB8
:100F8B00E58E547F4FF58E90028AE0FBA3E0FAA327
:100F9B00E0F99000051204947F407E427D0F7C00A7
:100FAB0012039BC004C005C006C007E58E7F00205E
:100FBB00E7027F01EF75F00BA42401FFE435F0FE8F
:100FCB003395E0FDFCD003D002D001D0001203100A
:100FDB00A804A905AA06AB0790028DE0FCA3E0FDCF
:100FEB00A3E0FEA3E0FF12039BC3E49FFFE49EFE7E
:100FFB0074019DFDE49CFC90028AE0FBA3E0FAA344
:10100B00E0F9900005120470900005120440900264
:10101B00E61204C490000212011D640290028A7051
:10102B0014E0FBA3E0FAA3E0F99000051204408F53
:10103B008A8F8C801DE0FBA3E0FAA3E0F9900005FA
:10104B001204408F8A900005120440780812042D78
:10105B008F8C90028AE0FBA3E0FAA3E0F9900004E6
:10106B0012011DFFE58F54FE4FF58F900009120101
:10107B001D24FF928C7F00229002A3EFF09002FAC6
:10108B00E004F0C2AFC0E0C0F0C083C082C0D07536
:10109B00D000C000C001C002C003C004C005C00620
:1010AB00C007900216E0FBA3E0FAA3E0F9120501DA
:1010BB0090000912023F85F00DF50E750F22C3E566
:1010CB00819422F510850E82850D83F0AF101510DB
:1010DB00EF6017050FA80FE6FF050EE50E70020572
:1010EB000DF582850D83EFF080E2900216E0FBA3F5
:1010FB00E0FAA3E0F99002A3E0FD1213227B017A40
:10110B000279A41216F5900216EBF0A3EAF0A3E90C
:10111B00F09002A4E0FF900225E014FDF01217BE40
:10112B00900216E0FBA3E0FAA3E0F9120501900090
:10113B000674041201C690000912023F85F00DF5EA
:10114B000E750F22F582850D83E0F510AF1015108B
:10115B00EF6015050EE50E7002050DF582850D830A
:10116B00E0050FA80FF680E4850F81D007D006D0DD
:10117B0005D004D003D002D001D000D0D0D082D083
:10118B0083D0F0D0E09002FAE014F07002D2AF22DC
:10119B0090029FEBF0A3EAF0A3E9F0A3EDF0E4FFDC
:1011AB00FE9002F5E0FBA3E0FAA3E0F990000C122D
:1011BB00011DFDEEC39D50279002F5E0FBA3E0FA65
:1011CB00A3E0F975F003EEA4F58285F083120570A8
:1011DB00120501120104AC070FB504030E80C29077
:1011EB00029FE0FBA3E0FAA3E0F9120501EF120165
:1011FB00B49002A2E0FF90029FE0FBA3E0FAA3E011
:10120B00F9120501900001EF1201C690029FE0FB5D
:10121B00A3E0FAA3E0F9C003C002C0019002F5E01D
:10122B00FBA3E0FAA3E0F9C003C002C0019002F5F2
:10123B00E0FBA3E0FAA3E0F990000C740112014A61
:10124B0075F003A4F58285F083D001D002D0031290
:10125B0005A07F00229002D57401F0C2C0900283DA
:10126B0074FFF0A37418F0A3749FF0A37401F0A3A0
:10127B007402F0A374D5F0A37401F0A3F0A374026D
:10128B00F0A374DFF0A37420F07B017A0279D612FD
:10129B0016629002D6EBF0A3EAF0A3E9F09002837A
:1012AB0074FFF0A37418F0A374C5F0A3E4F0A3F0DB
:1012BB00A3F0A37402F07B01A314F0A37402F0A3B8
:1012CB0074E1F0A37420F07A0279D91216629002BD
:1012DB00D9EBF0A3EAF0A3E9F090028374FFF0A33B
:1012EB007418F0A374EBF0A3E4F0A3F0A3F0A374D1
:1012FB0003F0A37401F0A37402F0A374E3F0A374DE
:10130B0020F07B017A0279DC1216629002DCEBF0A2
:10131B00A3EAF0A3E9F0229002AAEBF0A3EAF0A370
:10132B00E9F0E4FF120501900006ED1201C6ED1481
:10133B00602A146075240260030213DD9002AAE098
:10134B00FBA3E0FAA3E0F9900225E0FF04F0EF75B0
:10135B00F003A42419F582E43402806CEFC39404E7
:10136B0074809480506CEF75F003A42426F582E40E
:10137B003402F583E0FBA3E0FAA3E04A4B7028901C
:10138B0002AAE0FBA3E0FAA3E0F9EF75F003A424B3
:10139B0026F582E43402F583EBF0A3EAF0A3E9F03F
:1013AB00900232E004F0220F80B29002AAE0FBA37D
:1013BB00E0FAA3E0F990023FE0FF04F0EF75F003D1
:1013CB00A42433F582E43402F583EBF0A3EAF0A313
:1013DB00E9F02290029FEBF0A3EAF0A3E9F0C3EC53
:1013EB00940240077B007A007900229002FAE00415
:1013FB00F0C2AF90000474FF75F0F81201E8900290
:10140B009FE0FBA3E0FAA3E0F9C003C002C0019088
:10141B000003E0FBA3E0FAA3E0F912052190000022
:10142B00E0FBA3E0FAA3E0F9C003C002C001A3E014
:10143B00FBA3E0FAA3E0F99000031205A0900003D0
:10144B00E0FBA3E0FAA3E0F9900006EC8DF01202AA
:10145B00E3900000E0FBA3E0FAA3E0F9900001ECBD
:10146B008DF01201E8ED2408FFE43CFEC390000868
:10147B00E09FF0900007E09EF0900006E004F090F3
:10148B0002FAE014F07002D2AF2278EDE4F6D8FD48
:10149B009000007FFF7E1DE4F0A3DFFCDEFA758178
:1014AB00A112176C0214ED0219C0E493A3F8E49394
:1014BB00A34003F68001F208DFF48029E493A3F83C
:1014CB005407240CC8C333C4540F4420C8834004AE
:1014DB00F456800146F6DFE4800B0102040810206D
:1014EB0040809017FFE47E019360BCA3FF543F3014
:1014FB00E509541FFEE493A360010ECF54C025E011
:10150B0060A840B8E493A3FAE493A3F8E493A3C8C8
:10151B00C582C8CAC583CAF0A3C8C582C8CAC58359
:10152B00CADFE9DEE780BEE59D603178FAE6FBAF06
:10153B009FC3EF9BFFE49400FEE49400FDE4940052
:10154B00FC7BE07A2879017800120310E42FFFEE80
:10155B003451FEED3425FDEC3402802E78FBE6FB96
:10156B00AF9FC3EF9BFFE49400FEE49400FDE49473
:10157B0000FCE47B807ABBF9F8120310E42FFFEE3A
:10158B003436FEED346EFDEC3401FC900291120406
:10159B00C4900291E0FCA3E0FDA3E0FEA3E0FFC03A
:1015AB000790FE01E0FBE4FAF9F8D00712039B90D9
:1015BB0002911204C4900291E0FCA3E0FDA3E0FEB3
:1015CB00A3E0FF227B017A0279801216F5900216B6
:1015DB00EBF0A3EAF0A3E9F0900280E0FF90022584
:1015EB00E014FDF01217BE900216E0FBA3E0FAA385
:1015FB00E0F912050190000674041201C69000096F
:10160B0012023F85F00DF50E750F22F582850D83C5
:10161B00E0F510AF101510EF6015050EE50E70021A
:10162B00050DF582850D83E0050FA80FF680E48587
:10163B000F81D007D006D005D004D003D002D00143
:10164B00D000D0D0D082D083D0F0D0E09002FAE09E
:10165B0014F07002D2AF22900280EBF0A3EAF0A359
:10166B00E9F090028AE0FBA3E0FAA3E0F9A3E0FD26
:10167B007C001213DEAE02AF0190028AE0FBA3E006
:10168B00FAA3E0F9EE8FF01202C4900283E0F9A303
:10169B00E0FAA3E0900291C9F0A3EAF0A3E9F0907D
:1016AB000286E0F9A3E0FAA3E0900294C9F0A3EA62
:1016BB00F0A3E9F0900289E0900297F090028AE0A3
:1016CB00FBA3E0FAA3E0F9120214FF900298E5F0F5
:1016DB00F0A3EFF090028DE090029AF0900280E080
:1016EB00FBA3E0FAA3E0F9020A929002A7EBF0A3A6
:1016FB00EAF0A3E9F0E4FFFE1201B4900225E0FD4D
:10170B00EFC39D5038EF75F003A42419F582E43430
:10171B0002F583E0FBA3E0FAA3E0F91205019000C8
:10172B000512011DFDD39E4011AE059002A7E0FBF3
:10173B00A3E0FAA3E0F9EF1201B40F80BE9002A769
:10174B00E0FBA3E0FAA3E0F912010475F003A42473
:10175B0019F582E43402F583E0FBA3E0FAA3E0F988
:10176B00221200039002FAE004F0C2AF12187612B4
:10177B00193190029174FFF0A37419F0A37470F0F7
:10178B00A3E4F0A3F0A3F0A3F0A37402F0A37440BE
:10179B00F0A37440F07B017A0279F2120A92900264
:1017AB00F2EBF0A3EAF0A3E9F01212601215CFE40A
:1017BB00FEFF22ED75F003A42419F582E43402F543
:1017CB0083E0FBA3E0FAA3E0F9EF75F003A424197F
:1017DB00F582E43402F583EBF0A3EAF0A3E9F0ED34
:1017EB0075F003A42419F582E43402F583E4F0A325
:1017FB00F0A3F0224402E6000000004402EA0000DD
:10180B0000004102F8004102F9004102FA004102D6
:10181B00EE004302EF0000004D0209000000000043
:10182B0000000000000000004102E5004102D5006D
:10183B000078807C027D017BFF7A1A79047E007F21
:10184B000A1200DEE4900282F0A304F090028512EB
:10185B0004D0000003E89002897401F0FB7A02794E
:10186B0080120F367D017F03021911E4900006F000
:10187B00A37402F0A3E4F07B0190000004F0A374C6
:10188B0000F0A37409F0A3EBF0A37402F0A37409A6
:10189B00F07F0022A2E9E4339002E5F0C2AF7BFFB8
:1018AB007A1979CFE09002B0F0120798D2AF63E8C3
:1018BB00027F647E0012195180DAA2EAE4339002AF
:1018CB00E5F0C2AF7BFF7A1979DEE09002B0F0123F
:1018DB000798D2AF63E8047FC87E0012195180DAF3
:1018EB00A2EBE4339002E5F0C2AF7BFF7A1979EDFE
:1018FB00E09002B0F0120798D2AF63E8087F2C7E1D
:10190B000112195180DAED24FF92A9EF5402FEE582
:10191B00B754FD4EF5B7EF540125E0FFE5B854FD84
:10192B004FF5B87F00229002F5E0FBA3E0FAA3E0AD
:10193B00F97D0D7C001213DE9002F5EBF0A3EAF0BB
:10194B00A3E9F07F0022900216E0FBA3E0FAA3E0EC
:10195B00F9120501900007EE8FF01202E37F0112DE
:10196B0010837F00229002EFE0FBA3E0FAA3E0F9E3
:10197B00EA494B60F01205F980EB9002F5E0FBA30E
:10198B00E0FAA3E0F990000C12011DFF229002FA7D
:10199B00E004F0C2AF9002EEEFF080FE75CB007565
:1019AB00CCFF75B30075B4FF229002F5E0FBA3E00A
:1019BB00FAA3E0F9227F061219987E007F01228F8D
:1019CB00997F00227461736B312050363120256270
:1019DB00640A007461736B322050363220256264C6
:1019EB000A007461736B3320503633202562640A0E
:1019FB0000000000000000000000000000000000DC
:0F1A0B00000000000000000000000000000000CC
:00000001FF
